{
  "_format": "hh-sol-artifact-1",
  "contractName": "MyL2DepositedERC20.ovm",
  "sourceName": "contracts/MyL2DepositedERC20.sol",
  "abi": [
    {
      "inputs": [
        {
          "internalType": "address",
          "name": "_l2CrossDomainMessenger",
          "type": "address"
        },
        {
          "internalType": "uint8",
          "name": "_decimals",
          "type": "uint8"
        },
        {
          "internalType": "string",
          "name": "_name",
          "type": "string"
        },
        {
          "internalType": "string",
          "name": "_symbol",
          "type": "string"
        }
      ],
      "stateMutability": "nonpayable",
      "type": "constructor"
    },
    {
      "anonymous": false,
      "inputs": [
        {
          "indexed": true,
          "internalType": "address",
          "name": "owner",
          "type": "address"
        },
        {
          "indexed": true,
          "internalType": "address",
          "name": "spender",
          "type": "address"
        },
        {
          "indexed": false,
          "internalType": "uint256",
          "name": "value",
          "type": "uint256"
        }
      ],
      "name": "Approval",
      "type": "event"
    },
    {
      "anonymous": false,
      "inputs": [
        {
          "indexed": true,
          "internalType": "address",
          "name": "_to",
          "type": "address"
        },
        {
          "indexed": false,
          "internalType": "uint256",
          "name": "_amount",
          "type": "uint256"
        }
      ],
      "name": "DepositFinalized",
      "type": "event"
    },
    {
      "anonymous": false,
      "inputs": [
        {
          "indexed": false,
          "internalType": "contract iOVM_L1TokenGateway",
          "name": "_l1TokenGateway",
          "type": "address"
        }
      ],
      "name": "Initialized",
      "type": "event"
    },
    {
      "anonymous": false,
      "inputs": [
        {
          "indexed": true,
          "internalType": "address",
          "name": "from",
          "type": "address"
        },
        {
          "indexed": true,
          "internalType": "address",
          "name": "to",
          "type": "address"
        },
        {
          "indexed": false,
          "internalType": "uint256",
          "name": "value",
          "type": "uint256"
        }
      ],
      "name": "Transfer",
      "type": "event"
    },
    {
      "anonymous": false,
      "inputs": [
        {
          "indexed": true,
          "internalType": "address",
          "name": "_from",
          "type": "address"
        },
        {
          "indexed": false,
          "internalType": "address",
          "name": "_to",
          "type": "address"
        },
        {
          "indexed": false,
          "internalType": "uint256",
          "name": "_amount",
          "type": "uint256"
        }
      ],
      "name": "WithdrawalInitiated",
      "type": "event"
    },
    {
      "inputs": [
        {
          "internalType": "address",
          "name": "",
          "type": "address"
        },
        {
          "internalType": "address",
          "name": "",
          "type": "address"
        }
      ],
      "name": "allowance",
      "outputs": [
        {
          "internalType": "uint256",
          "name": "",
          "type": "uint256"
        }
      ],
      "stateMutability": "view",
      "type": "function"
    },
    {
      "inputs": [
        {
          "internalType": "address",
          "name": "spender",
          "type": "address"
        },
        {
          "internalType": "uint256",
          "name": "value",
          "type": "uint256"
        }
      ],
      "name": "approve",
      "outputs": [
        {
          "internalType": "bool",
          "name": "",
          "type": "bool"
        }
      ],
      "stateMutability": "nonpayable",
      "type": "function"
    },
    {
      "inputs": [
        {
          "internalType": "address",
          "name": "",
          "type": "address"
        }
      ],
      "name": "balanceOf",
      "outputs": [
        {
          "internalType": "uint256",
          "name": "",
          "type": "uint256"
        }
      ],
      "stateMutability": "view",
      "type": "function"
    },
    {
      "inputs": [],
      "name": "decimals",
      "outputs": [
        {
          "internalType": "uint8",
          "name": "",
          "type": "uint8"
        }
      ],
      "stateMutability": "view",
      "type": "function"
    },
    {
      "inputs": [
        {
          "internalType": "address",
          "name": "_to",
          "type": "address"
        },
        {
          "internalType": "uint256",
          "name": "_amount",
          "type": "uint256"
        }
      ],
      "name": "finalizeDeposit",
      "outputs": [],
      "stateMutability": "nonpayable",
      "type": "function"
    },
    {
      "inputs": [],
      "name": "getFinalizeWithdrawalL1Gas",
      "outputs": [
        {
          "internalType": "uint32",
          "name": "",
          "type": "uint32"
        }
      ],
      "stateMutability": "view",
      "type": "function"
    },
    {
      "inputs": [
        {
          "internalType": "contract iOVM_L1TokenGateway",
          "name": "_l1TokenGateway",
          "type": "address"
        }
      ],
      "name": "init",
      "outputs": [],
      "stateMutability": "nonpayable",
      "type": "function"
    },
    {
      "inputs": [],
      "name": "l1TokenGateway",
      "outputs": [
        {
          "internalType": "contract iOVM_L1TokenGateway",
          "name": "",
          "type": "address"
        }
      ],
      "stateMutability": "view",
      "type": "function"
    },
    {
      "inputs": [],
      "name": "messenger",
      "outputs": [
        {
          "internalType": "address",
          "name": "",
          "type": "address"
        }
      ],
      "stateMutability": "view",
      "type": "function"
    },
    {
      "inputs": [],
      "name": "name",
      "outputs": [
        {
          "internalType": "string",
          "name": "",
          "type": "string"
        }
      ],
      "stateMutability": "view",
      "type": "function"
    },
    {
      "inputs": [],
      "name": "symbol",
      "outputs": [
        {
          "internalType": "string",
          "name": "",
          "type": "string"
        }
      ],
      "stateMutability": "view",
      "type": "function"
    },
    {
      "inputs": [],
      "name": "totalSupply",
      "outputs": [
        {
          "internalType": "uint256",
          "name": "",
          "type": "uint256"
        }
      ],
      "stateMutability": "view",
      "type": "function"
    },
    {
      "inputs": [
        {
          "internalType": "address",
          "name": "to",
          "type": "address"
        },
        {
          "internalType": "uint256",
          "name": "value",
          "type": "uint256"
        }
      ],
      "name": "transfer",
      "outputs": [
        {
          "internalType": "bool",
          "name": "",
          "type": "bool"
        }
      ],
      "stateMutability": "nonpayable",
      "type": "function"
    },
    {
      "inputs": [
        {
          "internalType": "address",
          "name": "from",
          "type": "address"
        },
        {
          "internalType": "address",
          "name": "to",
          "type": "address"
        },
        {
          "internalType": "uint256",
          "name": "value",
          "type": "uint256"
        }
      ],
      "name": "transferFrom",
      "outputs": [
        {
          "internalType": "bool",
          "name": "",
          "type": "bool"
        }
      ],
      "stateMutability": "nonpayable",
      "type": "function"
    },
    {
      "inputs": [
        {
          "internalType": "uint256",
          "name": "_amount",
          "type": "uint256"
        }
      ],
      "name": "withdraw",
      "outputs": [],
      "stateMutability": "nonpayable",
      "type": "function"
    },
    {
      "inputs": [
        {
          "internalType": "address",
          "name": "_to",
          "type": "address"
        },
        {
          "internalType": "uint256",
          "name": "_amount",
          "type": "uint256"
        }
      ],
      "name": "withdrawTo",
      "outputs": [],
      "stateMutability": "nonpayable",
      "type": "function"
    }
  ],
  "bytecode": "0x60a06040523480156200001c57600080620000196200015b565b50505b5060405162002707380380620027078339818101604052810190620000429190620004a2565b82828260008780806000806101000a816200005c620001cb565b8173ffffffffffffffffffffffffffffffffffffffff021916908373ffffffffffffffffffffffffffffffffffffffff160217906200009a62000230565b50505050508360ff1660808160ff1660f81b815250508260029080519060200190620000c892919062000297565b508160039080519060200190620000e192919062000297565b5080600560005a620000f262000363565b73ffffffffffffffffffffffffffffffffffffffff1673ffffffffffffffffffffffffffffffffffffffff16815260200190815260200160002081906200013862000230565b50505080600481906200014a62000230565b50505050505050505050506200068b565b632a2a7adb598160e01b8152600481016020815285602082015260005b868110156200019857808601518160408401015260208101905062000178565b506020828760640184336000905af158600e01573d6000803e3d6000fd5b3d6001141558600a015760016000f35b505050565b6303daa959598160e01b8152836004820152602081602483336000905af158600e01573d6000803e3d6000fd5b3d6001141558600a015760016000f35b8051935060005b60408110156200022b576000818301526020810190506200020f565b505050565b6322bd64c0598160e01b8152836004820152846024820152600081604483336000905af158600e01573d6000803e3d6000fd5b3d6001141558600a015760016000f35b60005b6040811015620002925760008183015260208101905062000276565b505050565b8280620002a3620001cb565b600181600116156101000203166002900490600052602060002090601f016020900481019282620002e357600085620002db62000230565b505062000350565b82601f106200030957805160ff191683800117856200030162000230565b505062000350565b828001600101856200031a62000230565b5050821562000350579182015b828111156200034f578251826200033d62000230565b50509160200191906001019062000327565b5b5090506200035f9190620003c2565b5090565b6373509064598160e01b8152602081600483336000905af158600e01573d6000803e3d6000fd5b3d6001141558600a015760016000f35b8051935060005b6040811015620003bd57600081830152602081019050620003a1565b505050565b5b80821115620003e857600081600090620003dc62000230565b505050600101620003c3565b5090565b600062000403620003fd8462000595565b62000561565b9050828152602081018484840111156200042757600080620004246200015b565b50505b6200043484828562000609565b509392505050565b6000815190506200044d8162000641565b92915050565b600082601f83011262000470576000806200046d6200015b565b50505b815162000482848260208601620003ec565b91505092915050565b6000815190506200049c8162000666565b92915050565b60008060008060808587031215620004c457600080620004c16200015b565b50505b6000620004d4878288016200043c565b9450506020620004e7878288016200048b565b935050604085015167ffffffffffffffff81111562000510576000806200050d6200015b565b50505b6200051e8782880162000453565b925050606085015167ffffffffffffffff8111156200054757600080620005446200015b565b50505b620005558782880162000453565b91505092959194509250565b6000604051905081810181811067ffffffffffffffff821117156200058b576200058a6200063f565b5b8060405250919050565b600067ffffffffffffffff821115620005b357620005b26200063f565b5b601f19601f8301169050602081019050919050565b6000620005d582620005dc565b9050919050565b600073ffffffffffffffffffffffffffffffffffffffff82169050919050565b600060ff82169050919050565b60005b83811015620006295780820151818401526020810190506200060c565b8381111562000639576000848401525b50505050565bfe5b6200064c81620005c8565b81146200066357600080620006606200015b565b50505b50565b6200067181620005fc565b81146200068857600080620006856200015b565b50505b50565b60805160f81c61205e620006a9600039806108e7525061205e6000f3fe60806040523480156100195760008061001661166b565b50505b50600436106101095760003560e01c80633cb747bf116100a0578063a84ce98c1161006f578063a84ce98c146102ad578063a9059cbb146102cb578063bdeaf641146102fb578063dd62ed3e1461031957610109565b80633cb747bf1461022557806370a08231146102435780638d6e9a5b1461027357806395d89b411461028f57610109565b8063205c2878116100dc578063205c28781461019f57806323b872dd146101bb5780632e1a7d4d146101eb578063313ce5671461020757610109565b806306fdde0314610117578063095ea7b31461013557806318160ddd1461016557806319ab453c14610183575b60008061011461166b565b50505b61011f610349565b60405161012c9190611df1565b60405180910390f35b61014f600480360381019061014a9190611b6f565b610403565b60405161015c9190611dbb565b60405180910390f35b61016d610422565b60405161017a9190611e53565b60405180910390f35b61019d60048036038101906101989190611bb4565b61042f565b005b6101b960048036038101906101b49190611b6f565b610584565b005b6101d560048036038101906101d09190611b17565b610634565b6040516101e29190611dbb565b60405180910390f35b61020560048036038101906102009190611be6565b61082e565b005b61020f6108e5565b60405161021c9190611e89565b60405180910390f35b61022d610909565b60405161023a9190611d77565b60405180910390f35b61025d60048036038101906102589190611aa0565b610934565b60405161026a9190611e53565b60405180910390f35b61028d60048036038101906102889190611b6f565b610953565b005b610297610c5a565b6040516102a49190611df1565b60405180910390f35b6102b5610d14565b6040516102c29190611dd6565b60405180910390f35b6102e560048036038101906102e09190611b6f565b610d41565b6040516102f29190611dbb565b60405180910390f35b610303610d60565b6040516103109190611e6e565b60405180910390f35b610333600480360381019061032e9190611ad2565b610d6b565b6040516103409190611e53565b60405180910390f35b6002806103546116d9565b600181600116156101000203166002900480601f0160208091040260200160405190810160405280929190818152602001828061038f6116d9565b600181600116156101000203166002900480156103fb5780601f106103c95761010080836103bb6116d9565b0402835291602001916103fb565b820191906000526020600020905b816103e06116d9565b815290600101906020018083116103d757829003601f168201915b505050505081565b60006104185a61041161173c565b8484610d97565b6001905092915050565b600461042c6116d9565b81565b600073ffffffffffffffffffffffffffffffffffffffff1660016000906104546116d9565b906101000a900473ffffffffffffffffffffffffffffffffffffffff1673ffffffffffffffffffffffffffffffffffffffff16146104d0576040517f08c379a00000000000000000000000000000000000000000000000000000000081526004016104be90611e13565b604051809103906104cd61166b565b50505b80600160006101000a816104e26116d9565b8173ffffffffffffffffffffffffffffffffffffffff021916908373ffffffffffffffffffffffffffffffffffffffff1602179061051e611799565b5050507f908408e307fc569b417f6cbec5d5a06f44a0a505ac0479b47d421a4b2fd6a1e6600160009061054f6116d9565b906101000a900473ffffffffffffffffffffffffffffffffffffffff166040516105799190611dd6565b60405180910390a150565b600073ffffffffffffffffffffffffffffffffffffffff1660016000906105a96116d9565b906101000a900473ffffffffffffffffffffffffffffffffffffffff1673ffffffffffffffffffffffffffffffffffffffff161415610626576040517f08c379a000000000000000000000000000000000000000000000000000000000815260040161061490611e33565b6040518091039061062361166b565b50505b6106308282610e8b565b5050565b60007fffffffffffffffffffffffffffffffffffffffffffffffffffffffffffffffff600660008673ffffffffffffffffffffffffffffffffffffffff1673ffffffffffffffffffffffffffffffffffffffff16815260200190815260200160002060005a6106a161173c565b73ffffffffffffffffffffffffffffffffffffffff1673ffffffffffffffffffffffffffffffffffffffff1681526020019081526020016000206106e36116d9565b146108185761078682600660008773ffffffffffffffffffffffffffffffffffffffff1673ffffffffffffffffffffffffffffffffffffffff16815260200190815260200160002060005a61073661173c565b73ffffffffffffffffffffffffffffffffffffffff1673ffffffffffffffffffffffffffffffffffffffff1681526020019081526020016000206107786116d9565b610fa990919063ffffffff16565b600660008673ffffffffffffffffffffffffffffffffffffffff1673ffffffffffffffffffffffffffffffffffffffff16815260200190815260200160002060005a6107d061173c565b73ffffffffffffffffffffffffffffffffffffffff1673ffffffffffffffffffffffffffffffffffffffff1681526020019081526020016000208190610814611799565b5050505b610823848484611035565b600190509392505050565b600073ffffffffffffffffffffffffffffffffffffffff1660016000906108536116d9565b906101000a900473ffffffffffffffffffffffffffffffffffffffff1673ffffffffffffffffffffffffffffffffffffffff1614156108d0576040517f08c379a00000000000000000000000000000000000000000000000000000000081526004016108be90611e33565b604051809103906108cd61166b565b50505b6108e25a6108dc61173c565b82610e8b565b50565b7f000000000000000000000000000000000000000000000000000000000000000081565b6000806109146116d9565b906101000a900473ffffffffffffffffffffffffffffffffffffffff1681565b60056020528060005260406000206000915090506109506116d9565b81565b600073ffffffffffffffffffffffffffffffffffffffff1660016000906109786116d9565b906101000a900473ffffffffffffffffffffffffffffffffffffffff1673ffffffffffffffffffffffffffffffffffffffff1614156109f5576040517f08c379a00000000000000000000000000000000000000000000000000000000081526004016109e390611e33565b604051809103906109f261166b565b50505b6001600090610a026116d9565b906101000a900473ffffffffffffffffffffffffffffffffffffffff16610a276111e9565b73ffffffffffffffffffffffffffffffffffffffff165a610a4661173c565b73ffffffffffffffffffffffffffffffffffffffff1614610abb576040517f08c379a000000000000000000000000000000000000000000000000000000000815260040180806020018281038252602e815260200180612000602e913960400191505060405180910390610ab861166b565b50505b8073ffffffffffffffffffffffffffffffffffffffff16610ada6111e9565b73ffffffffffffffffffffffffffffffffffffffff16636e296e456040518163ffffffff1660e01b81526004016020604051808303818680610b1a6117fe565b158015610b2f57600080610b2c61166b565b50505b505a610b39611861565b5050505050158015610b58573d6000803e3d6000610b5561166b565b50505b505050506040513d6020811015610b7757600080610b7461166b565b50505b810190808051906020019092919050505073ffffffffffffffffffffffffffffffffffffffff1614610bfd576040517f08c379a000000000000000000000000000000000000000000000000000000000815260040180806020018281038252603081526020018061202e6030913960400191505060405180910390610bfa61166b565b50505b610c078383611219565b8273ffffffffffffffffffffffffffffffffffffffff167f162eb12ad2bd8b6ca7960f162208414ab3bc2da9f37953788ffd8cf850c3492b83604051610c4d9190611e53565b60405180910390a2505050565b600380610c656116d9565b600181600116156101000203166002900480601f01602080910402602001604051908101604052809291908181526020018280610ca06116d9565b60018160011615610100020316600290048015610d0c5780601f10610cda576101008083610ccc6116d9565b040283529160200191610d0c565b820191906000526020600020905b81610cf16116d9565b81529060010190602001808311610ce857829003601f168201915b505050505081565b6001600090610d216116d9565b906101000a900473ffffffffffffffffffffffffffffffffffffffff1681565b6000610d565a610d4f61173c565b8484611035565b6001905092915050565b6000620186a0905090565b600660205281600052604060002060205280600052604060002060009150915050610d946116d9565b81565b80600660008573ffffffffffffffffffffffffffffffffffffffff1673ffffffffffffffffffffffffffffffffffffffff16815260200190815260200160002060008473ffffffffffffffffffffffffffffffffffffffff1673ffffffffffffffffffffffffffffffffffffffff1681526020019081526020016000208190610e1e611799565b5050508173ffffffffffffffffffffffffffffffffffffffff168373ffffffffffffffffffffffffffffffffffffffff167f8c5be1e5ebec7d5bd14f71427d1e84f3dd0314c0f7b2291e5b200ac8c7c3b925836040518082815260200191505060405180910390a3505050565b610e958282611227565b600063f4f7b41a60e01b8383604051602401610eb2929190611d92565b604051602081830303815290604052907bffffffffffffffffffffffffffffffffffffffffffffffffffffffff19166020820180517bffffffffffffffffffffffffffffffffffffffffffffffffffffffff83818316178352505050509050610f4c6001600090610f216116d9565b906101000a900473ffffffffffffffffffffffffffffffffffffffff1682610f47610d60565b61123d565b5a610f5561173c565b73ffffffffffffffffffffffffffffffffffffffff167fbb2689ff876f7ef453cf8865dde5ab10349d222e2e1383c5152fbdb083f02da28484604051610f9c929190611d92565b60405180910390a2505050565b600082828403915081111561102f576040517f08c379a00000000000000000000000000000000000000000000000000000000081526004018080602001828103825260158152602001807f64732d6d6174682d7375622d756e646572666c6f7700000000000000000000008152506020019150506040518091039061102c61166b565b50505b92915050565b61108e81600560008673ffffffffffffffffffffffffffffffffffffffff1673ffffffffffffffffffffffffffffffffffffffff1681526020019081526020016000206110806116d9565b610fa990919063ffffffff16565b600560008573ffffffffffffffffffffffffffffffffffffffff1673ffffffffffffffffffffffffffffffffffffffff16815260200190815260200160002081906110d7611799565b50505061113381600560008573ffffffffffffffffffffffffffffffffffffffff1673ffffffffffffffffffffffffffffffffffffffff1681526020019081526020016000206111256116d9565b61136b90919063ffffffff16565b600560008473ffffffffffffffffffffffffffffffffffffffff1673ffffffffffffffffffffffffffffffffffffffff168152602001908152602001600020819061117c611799565b5050508173ffffffffffffffffffffffffffffffffffffffff168373ffffffffffffffffffffffffffffffffffffffff167fddf252ad1be2c89b69c2b068fc378daa952ba7f163c4a11628f55a4df523b3ef836040518082815260200191505060405180910390a3505050565b6000806000906111f76116d9565b906101000a900473ffffffffffffffffffffffffffffffffffffffff16905090565b61122382826113f7565b5050565b6112395a61123361173c565b82611531565b5050565b6112456111e9565b73ffffffffffffffffffffffffffffffffffffffff16633dbb202b8484846040518463ffffffff1660e01b8152600401808473ffffffffffffffffffffffffffffffffffffffff168152602001806020018363ffffffff168152602001828103825284818151815260200191508051906020019080838360005b838110156112da5780820151818401526020810190506112bf565b50505050905090810190601f1680156113075780820380516001836020036101000a031916815260200191505b50945050505050600060405180830381600087806113236117fe565b1580156113385760008061133561166b565b50505b505a611342611961565b505050505050158015611362573d6000803e3d600061135f61166b565b50505b50505050505050565b60008282840191508110156113f1576040517f08c379a00000000000000000000000000000000000000000000000000000000081526004018080602001828103825260148152602001807f64732d6d6174682d6164642d6f766572666c6f77000000000000000000000000815250602001915050604051809103906113ee61166b565b50505b92915050565b6114138160046114056116d9565b61136b90919063ffffffff16565b6004819061141f611799565b50505061147b81600560008573ffffffffffffffffffffffffffffffffffffffff1673ffffffffffffffffffffffffffffffffffffffff16815260200190815260200160002061146d6116d9565b61136b90919063ffffffff16565b600560008473ffffffffffffffffffffffffffffffffffffffff1673ffffffffffffffffffffffffffffffffffffffff16815260200190815260200160002081906114c4611799565b5050508173ffffffffffffffffffffffffffffffffffffffff16600073ffffffffffffffffffffffffffffffffffffffff167fddf252ad1be2c89b69c2b068fc378daa952ba7f163c4a11628f55a4df523b3ef836040518082815260200191505060405180910390a35050565b61158a81600560008573ffffffffffffffffffffffffffffffffffffffff1673ffffffffffffffffffffffffffffffffffffffff16815260200190815260200160002061157c6116d9565b610fa990919063ffffffff16565b600560008473ffffffffffffffffffffffffffffffffffffffff1673ffffffffffffffffffffffffffffffffffffffff16815260200190815260200160002081906115d3611799565b5050506115f28160046115e46116d9565b610fa990919063ffffffff16565b600481906115fe611799565b505050600073ffffffffffffffffffffffffffffffffffffffff168273ffffffffffffffffffffffffffffffffffffffff167fddf252ad1be2c89b69c2b068fc378daa952ba7f163c4a11628f55a4df523b3ef836040518082815260200191505060405180910390a35050565b632a2a7adb598160e01b8152600481016020815285602082015260005b868110156116a6578086015181604084010152602081019050611688565b506020828760640184336000905af158600e01573d6000803e3d6000fd5b3d6001141558600a015760016000f35b505050565b6303daa959598160e01b8152836004820152602081602483336000905af158600e01573d6000803e3d6000fd5b3d6001141558600a015760016000f35b8051935060005b60408110156117375760008183015260208101905061171d565b505050565b6373509064598160e01b8152602081600483336000905af158600e01573d6000803e3d6000fd5b3d6001141558600a015760016000f35b8051935060005b60408110156117945760008183015260208101905061177a565b505050565b6322bd64c0598160e01b8152836004820152846024820152600081604483336000905af158600e01573d6000803e3d6000fd5b3d6001141558600a015760016000f35b60005b60408110156117f9576000818301526020810190506117df565b505050565b638435035b598160e01b8152836004820152602081602483336000905af158600e01573d6000803e3d6000fd5b3d6001141558600a015760016000f35b8051935060005b604081101561185c57600081830152602081019050611842565b505050565b638540661f598160e01b81526118a0565b600081905081831115611883578290505b92915050565b60008190508183101561189a578290505b92915050565b836004820152846024820152606060448201528660648201526084810160005b888110156118db5780880151818301526020810190506118c0565b506060828960a40184336000905af158600e01573d6000803e3d6000fd5b3d6001141558600a015760016000f35b815160408301513d6000853e8b8b82606087013350600060045af150596119308d3d611889565b8c0161193c8187611872565b5b82811015611954576000815260208101905061193d565b50839d5050505050505050565b6385979f76598160e01b81526119a0565b600081905081831115611983578290505b92915050565b60008190508183101561199a578290505b92915050565b836004820152846024820152606060448201528760648201526084810160005b898110156119db5780890151818301526020810190506119c0565b506060828a60a40184336000905af158600e01573d6000803e3d6000fd5b3d6001141558600a015760016000f35b815160408301513d6000853e8c8c82606087013350600060045af15059611a308e3d611989565b8d01611a3c8187611972565b5b82811015611a545760008152602081019050611a3d565b50839e5050505050505050565b600081359050611a7081611f9f565b92915050565b600081359050611a8581611fbf565b92915050565b600081359050611a9a81611fdf565b92915050565b600060208284031215611abb57600080611ab861166b565b50505b6000611ac984828501611a61565b91505092915050565b60008060408385031215611aee57600080611aeb61166b565b50505b6000611afc85828601611a61565b9250506020611b0d85828601611a61565b9150509250929050565b600080600060608486031215611b3557600080611b3261166b565b50505b6000611b4386828701611a61565b9350506020611b5486828701611a61565b9250506040611b6586828701611a8b565b9150509250925092565b60008060408385031215611b8b57600080611b8861166b565b50505b6000611b9985828601611a61565b9250506020611baa85828601611a8b565b9150509250929050565b600060208284031215611bcf57600080611bcc61166b565b50505b6000611bdd84828501611a76565b91505092915050565b600060208284031215611c0157600080611bfe61166b565b50505b6000611c0f84828501611a8b565b91505092915050565b611c2181611ec0565b82525050565b611c3081611ed2565b82525050565b611c3f81611f37565b82525050565b6000611c5082611ea4565b611c5a8185611eaf565b9350611c6a818560208601611f5b565b611c7381611f8e565b840191505092915050565b6000611c8b602583611eaf565b91507f436f6e74726163742068617320616c7265616479206265656e20696e6974696160008301527f6c697a65640000000000000000000000000000000000000000000000000000006020830152604082019050919050565b6000611cf1602583611eaf565b91507f436f6e747261637420686173206e6f7420796574206265656e20696e6974696160008301527f6c697a65640000000000000000000000000000000000000000000000000000006020830152604082019050919050565b611d5381611f10565b82525050565b611d6281611f1a565b82525050565b611d7181611f2a565b82525050565b6000602082019050611d8c6000830184611c18565b92915050565b6000604082019050611da76000830185611c18565b611db46020830184611d4a565b9392505050565b6000602082019050611dd06000830184611c27565b92915050565b6000602082019050611deb6000830184611c36565b92915050565b60006020820190508181036000830152611e0b8184611c45565b905092915050565b60006020820190508181036000830152611e2c81611c7e565b9050919050565b60006020820190508181036000830152611e4c81611ce4565b9050919050565b6000602082019050611e686000830184611d4a565b92915050565b6000602082019050611e836000830184611d59565b92915050565b6000602082019050611e9e6000830184611d68565b92915050565b600081519050919050565b600082825260208201905092915050565b6000611ecb82611ef0565b9050919050565b60008115159050919050565b6000611ee982611ec0565b9050919050565b600073ffffffffffffffffffffffffffffffffffffffff82169050919050565b6000819050919050565b600063ffffffff82169050919050565b600060ff82169050919050565b6000611f4282611f49565b9050919050565b6000611f5482611ef0565b9050919050565b60005b83811015611f79578082015181840152602081019050611f5e565b83811115611f88576000848401525b50505050565b6000601f19601f8301169050919050565b611fa881611ec0565b8114611fbc57600080611fb961166b565b50505b50565b611fc881611ede565b8114611fdc57600080611fd961166b565b50505b50565b611fe881611f10565b8114611ffc57600080611ff961166b565b50505b5056fe4f564d5f58434841494e3a206d657373656e67657220636f6e747261637420756e61757468656e746963617465644f564d5f58434841494e3a2077726f6e672073656e646572206f662063726f73732d646f6d61696e206d657373616765",
  "linkReferences": {},
  "deployedLinkReferences": {}
}